:100000000C9457010C948F010C948F010C948F0168
:100010000C948F010C948F010C948F010C948F0120
:100020000C948F010C948F010C941D1C0C94EF1CEC
:100030000C942E170C948F010C948F010C948F014B
:100040000C948F010C948F010C948F010C948F01F0
:100050000C948F010C94B7170C948F010C948F01A2
:100060000C948F010C948F010C948F010C948F01D0
:100070000C948F010C948F010C948F010C948F01C0
:100080000C948F010C948F010C948F010C948F01B0
:100090000C948F010C948F010C948F010C948F01A0
:1000A0000C948F010C948F010C948F0105040504AE
:1000B000310431049204B0049F059F05B5042B055B
:1000C0003C053C056411D6116C1136113A117011C2
:1000D0003D1173117E114811CC114C118211501138
:1000E0008611B01154118A11BA115A1190119A1136
:1000F0004111771144117A115F119511A611C611A2
:10010000C81132116811DF1116151C150A151015CA
:10011000221528152E15571D7E1D761E7E1D761E56
:10012000CA1DED1D761E441E531E04001600070056
:100130001D001B000600140336006B005F006B00FF
:100140006500790070006100640000001403730012
:100150006F007500660066006C00650031003700B6
:1001600000000403090409023B00020100A0FA098F
:1001700004000001030101000921110100012244D2
:1001800000070581030800010904010001030000C4
:100190000009211101000122B60007058203200099
:1001A000011201000200000008EDFE000000010144
:1001B00002000105010902A10185020901A1000552
:1001C0000919012908150025019508750181020505
:1001D00001093009311581257F95027508810609CD
:1001E000381581257F950175088106050C0A3802AE
:1001F0001581257F950175088106C0C0050109801C
:10020000A101850319012AB700150126B700950140
:1002100075108100C0050C0901A101850419012A8E
:10022000A002150126A002950175108100C00501EC
:100230000906A1018506050719E029E71500250132
:100240009508750181020507190029EF15002501A0
:1002500095F07501810205081901290595057501BB
:100260009102950175039101C005010906A10105DF
:100270000719E029E7150025019508750181029508
:1002800001750881010507190029FF150026FF00E7
:100290009506750881000508190129051500250135
:1002A000950575019102950175039101C000112416
:1002B0001FBECFEFDAE0DEBFCDBF04B603FE18C02D
:1002C00080917E0290917F02A0918002B091810284
:1002D0008730904BA740B04B59F410927E02109299
:1002E0007F021092800210928102E0E0F8E309950B
:1002F00011E0A0E0B1E0E6EEFEE302C005900D9251
:10030000AE38B107D9F722E0AEE8B1E001C01D92E6
:10031000AE37B207E1F70E94D2100C94711F0C9413
:100320000000811113C0623088F4433078F470E02B
:10033000FB01EE0FFF1FE60FF71FE40FF11DEE0F9D
:10034000FF1FE65DFE4F85919491089581E090E056
:1003500008950E949101089581E0089581E0089533
:100360000E94AE0108950E94B00108950E94AE015E
:10037000089508950E94B9010895A6E0B0E0E3EC65
:10038000F1E00C94CD1E49835A839E8330919501F0
:1003900089819A81311115C03E81332359F022237E
:1003A00049F00E945D07182F682F89819A810E9469
:1003B000390703C00E944B07182F69817A81812F6A
:1003C00004C00E945D0769817A810E94680E2696AA
:1003D000E3E00C94E91EFC01262F408151816281EB
:1003E0007381848195810E94BD010895CF93DF932D
:1003F000EC0161E00E94EB01BE010E94B301DF91BC
:10040000CF910895CF93DF93EC0160E00E94EB0160
:10041000BE010E94BA01DF91CF91089581E0089555
:100420000E940E020895CF93C82F0E9410068C2FB1
:100430000E9410022FEF84E39CE021508040904006
:10044000E1F700C00000CF91089581E00E941302FF
:100450000E94DD17089580E00E9413020E94011897
:1004600008950F931F93CF93DF938C0161E00E9457
:10047000EB01EC01B8010E94B601882309F442C0E7
:10048000B801CE010E94FE148823E1F1B801CE012B
:100490000E940E118823B1F1B801CE010E94E41030
:1004A000882381F1F8018581882341F1C3308CE7ED
:1004B000D807D1F040F4C115FCE7DF0791F0C13057
:1004C000DC47A1F01BC0CB35ECE7DE07A9F0CC354B
:1004D000FCE7DF0771F0CA35DC4781F40E94C10BED
:1004E0000DC00E9425020EC00E94C90B0E942B0263
:1004F00009C00E94B70B02C00E94C50BC8010E9430
:10050000AC0101C080E0DF91CF911F910F91089560
:100510000E9405170E94AF0208950E94B3020E9434
:100520000E170895089581E008950895CF93DF93FD
:10053000D82F0E949302C82F882319F08D2F0E9474
:1005400095028C2FDF91CF9108950895CF93C82FF6
:100550000E9492028C2F0E949602CF91089580E013
:100560000E94A60208950E9446150E94A6020895C0
:10057000CF930E944615C82F80919001C81779F03B
:10058000C09390010E949C17609391017093920117
:1005900080939301909394018C2F0E94A602CF9197
:1005A0000895ADE0B0E0E7EDF2E00C94CE1E488790
:1005B00059876A877B878C879D8791110E94C30A20
:1005C000CE01019627E0FC0111922A95E9F726E079
:1005D000FE013896DC0101900D922A95E1F72D81FC
:1005E00021110AC029813A814B815C816D817E8114
:1005F0008F810E940D0A04C00E94F6018111F2CF82
:100600002D96E2E00C94EA1EFC012481213021F4B5
:10061000808191810E948F070895662319F00E94BE
:100620007E1202C00E94EF120E9466130895CF93BB
:10063000882309F444C0C82F8CEF8C0F813A70F4E2
:100640008C2F0E94E215882329F08C2F0E9482169D
:100650000E944A0B8C2F0E946B160CC080E28C0FFC
:10066000883058F4C77081E001C0880FCA95EAF756
:100670000E94A60A0E944A0B22C0EBE5EC0FE33071
:1006800040F4F0E0E35BFE4F808190E00E947A1539
:1006900016C0E8E5EC0FEB3150F4F0E0EE0FFF1F71
:1006A000E95EFE4F808191810E949F1508C083E31F
:1006B0008C0F833120F461E08C2F0E940D03CF91C9
:1006C0000895882381F19CEF980F913A18F40E94C5
:1006D00082160DC090E2980F983060F4877091E018
:1006E00001C0990F8A95EAF7892F0E94AC0A0E94EF
:1006F0004A0B08959BE5980F933028F480E090E032
:100700000E947A15089598E5980F9B3128F480E0AF
:1007100090E00E949F15089593E3980F933118F489
:1007200060E00E940D0308951F93CF93DF93182F6D
:10073000EB010E941703209741F08FE99FE001979A
:10074000F1F700C000002197F6CF812F0E946103CE
:10075000DF91CF911F910895893319F060E070E027
:1007600002C060E570E00E9494030895882321F0A0
:100770000E94A60A0E944A0B0895882321F00E9435
:10078000AC0A0E944A0B0895A0E0B0E0EAECF3E066
:100790000C94C81E7C01162FC72FFC01D581068141
:1007A00002950F700E949C0A8823F9F0DD23E9F07E
:1007B0008C2F807F803461F080E2810F8830A8F038
:1007C0008C2F807E803221F4123078F0002369F083
:1007D0008091680282FF09C082E00E948B0B0E9418
:1007E0009C0A91E0D82ED92601C0D12CCC2EC294DF
:1007F0008FE0C8228C2D90E08C30910508F09FC1CD
:10080000FC01EA5AFF4F0C94B81E8C2F807FCF70EA
:10081000882311F0C295C07FDD2399F0CC2309F421
:100820007AC180E2810F883010F0111104C08C2F42
:100830000E94A60A03C08C2F0E94B60A0E944A0B8F
:100840006AC1812F0E946103CC2309F478C180E240
:10085000810F883038F1112329F18C2F0E94BC0AB6
:1008600024C08C2F807FCF70803211F0C295C07F62
:10087000112319F0113099F13CC08091680282FD7A
:1008800017C0DD2349F0CC2329F08C2F0E94A60A43
:100890000E944A0B80E040C180E00E946103CC23AB
:1008A00009F44DC18C2F0E94AC0A0E944A0B47C12B
:1008B000DD2349F0002309F1013009F040C18C2FFC
:1008C0000E94CD0A3CC101113AC18C2F0E94BD0388
:1008D0008C2F0E94D90A8C2F0E945E0B30C1DD2321
:1008E00021F0063008F02BC108C0053008F027C100
:1008F00015C0DD2331F001110EC18C2F0E94B6030B
:100900001EC1002359F0193309F016C1FFEF27EE7D
:1009100083E0F15020408040E1F70CC18C2F0E9411
:10092000BD030DC18C2F86958695837019F081309B
:1009300061F005C1DD2321F0812F9C2F937002C04F
:1009400080E090E00E947A1502C1DD2321F0812F22
:100950009C2F937002C080E090E00E949F15F7C02A
:100960006D2F812F0E940D03F2C08C2F8370B1F583
:10097000D111E9C0412F429546954770440F440F6D
:10098000812F8F7090E09C01042E02C0220F331F34
:100990000A94E2F714FF0AC08FE090E002C0880FCB
:1009A000991F4A95E2F78095909502C080E090E00B
:1009B000C695C695C370822B932BC23049F058F46C
:1009C000C13019F00E946C06BEC00E946306BBC015
:1009D0000E947506B8C00E946006B5C0DD2319F0FC
:1009E0008C2F817001C08695882309F4ACC0412FFB
:1009F000429546954770440F440F812F8F7090E0C9
:100A00009C01042E02C0220F331F0A94E2F714FF48
:100A10000AC08FE090E002C0880F991F4A95E2F764
:100A20008095909502C080E090E0C695C695C37011
:100A3000822B932BC23049F058F4C13019F00E9438
:100A4000D40681C00E94CB067EC00E94DD067BC01A
:100A50000E94810678C0CF70DD2339F08C2F0E9470
:100A60009906812F0E94B6036EC0812F0E94BD039C
:100A70008C2F0E94A90667C0123F21F128F4103F75
:100A800041F0113FC1F043C0133F19F1143F79F019
:100A90003EC0DD2341F0053008F051C08C2F8F712E
:100AA0000E94BB064CC0063008F049C0F7CF8091C9
:100AB000680282FD18C0DD2339F08C2F8F710E94EF
:100AC00099063DC0DD23C9F38C2F8F710E94A906C2
:100AD00036C0DD2329F08C2F8F710E948D062FC028
:100AE0000E9488062CC0DD2349F0CF718C2F0E9414
:100AF000990663E08C2F0E946D0B21C081E00E945B
:100B00008B0B0230E0F082E00E948B0B18C0DD23DB
:100B100031F0002391F2812F0E94170310C00023AF
:100B200099F2193349F49FEFE7EEF3E09150E0407A
:100B3000F040E1F700C00000812F0E94610388EFC0
:100B40008C0D843020F40E9446150E94A602DD2000
:100B500089F00E94980A80FD0DC0F70115820E945D
:100B6000920A0E949906C7010E94D7050E94920A24
:100B70000E94A906CDB7DEB7E8E00C94E41E0F93FF
:100B80001F93CF93DF93EC01688179818D810E945F
:100B90009A078C010E94E6060E945106B801CE0118
:100BA0000E94C403DF91CF911F910F910895CF93BD
:100BB000DF93FC0124812223D1F0EC010E94310259
:100BC00081110FC00E949C0A882389F08D8188239F
:100BD00071F08091680282FF0AC082E00E948B0B54
:100BE00006C0CE010E94BF05CE010E940202DF9125
:100BF000CF91089580E090E00E947A1580E090E027
:100C00000E949F150E94C30A0E944A0B0E948513EE
:100C10000E94661308950E9499160E94FA0508958D
:100C20000E94B30A0E940B06089592959F70963019
:100C300079F010F4925001C09A50923068F4803FDD
:100C400069F018F4883E40F409C0843F29F406C0D6
:100C5000883E20F0813F11F080E0089581E0089502
:100C6000FC012481222339F0808191810E948F0729
:100C70000E941506089580E00895A6E0B0E0E3E440
:100C8000F6E00C94CE1E2696E2E00C94EA1EA7E055
:100C9000B0E0EDE4F6E00C94CE1E2796E2E00C9472
:100CA000EA1E089508950E94520608950E94530670
:100CB00008950E94560690939D0180939C0108958B
:100CC0000E945906089520919C0130919D01822B2C
:100CD000932B0E945906089520919C0130919D010B
:100CE000822393230E945906089520919C013091FC
:100CF0009D01822793270E94590608950E9452065B
:100D000008950E947E0690939B0180939A01089516
:100D100080E090E00E948106089521E030E0A90182
:100D200002C0440F551F8A95E2F7CA010E9481064E
:100D3000089521E030E002C0220F331F8A95E2F7C8
:100D400080919A0190919B01822B932B0E948106A6
:100D5000089521E030E002C0220F331F8A95E2F7A8
:100D60002095309580919A0190919B018223932345
:100D70000E948106089521E030E002C0220F331F57
:100D80008A95E2F780919A0190919B01822793279F
:100D90000E948106089520919A0130919B01822B37
:100DA000932B0E948106089520919A0130919B0116
:100DB000822393230E948106089520919A01309105
:100DC0009B01822793270E94810608950895962FFC
:100DD0009770A1E001C0AA0F9A95EAF793E0769583
:100DE00067959A95E1F7660F771F660F771FFA01EF
:100DF000E60FF71F40E050E0682F70E090819B0104
:100E0000042E02C0369527950A94E2F721702195A9
:100E100029272A23292721934F5F5F4F443051050B
:100E200069F70895FB01782F777023E096958795F1
:100E30002A95E1F7880F991F880F991FE80FF91F6E
:100E400040E050E080E0219130E0072E02C036956E
:100E500027950A94E2F721703327042E01C0220F50
:100E60000A94EAF7822B4F5F5F4F4430510559F7E0
:100E70000895282F923070F4833060F4862F622F0B
:100E800070E023E0929F600D711D112446E951E04E
:100E90000E94E7060895923070F4833060F4292FA1
:100EA00090E066E971E033E0239F800D911D1124ED
:100EB0000E941207089580E00895A0E0B0E0E3E604
:100EC000F7E00C94C71E7C0100919A0110919B01E0
:100ED00080919C0190919D01082B192BCFE0D0E0CF
:100EE000CC24C394D12CC6010C2E02C0880F991FAC
:100EF0000A94E2F780239123892B21F4219798F714
:100F0000B12C07C0BC2EB7018C2F0E94740E019724
:100F1000A9F38B2DCDB7DEB7E9E00C94E31ECF9398
:100F2000DF93EC010E945D07BE010E94740EDF9109
:100F3000CF9108951F93CF93DF93EB01909195018B
:100F4000992321F0CB010E948F0713C0882349F019
:100F5000CB010E945D07182F682FCE010E94390730
:100F600004C0CB010E944B07182FBE01812F0E94A5
:100F7000740EDF91CF911F9108951F93CF93DF934C
:100F8000C0919E0117E080919F01C817A1F0D0E0A9
:100F90001C9FF0011D9FF00D1124E056FE4F208193
:100FA0003181428153816481758186810E94470627
:100FB0002196C770E8CFDF91CF911F9108952091BE
:100FC000D8013091D9014091DA015091DB01609153
:100FD000DC017091DD018091DE010E9447060895D9
:100FE000CF93DF938091DE0182958F7009F04EC020
:100FF0008091DD01882309F449C080919E014091D0
:101000009F015091D9016091D801C091DA01D0912E
:10101000DB0177E08417D1F190E0789FF001799FB0
:10102000F00D1124DF01A056BE4F14962C91149799
:10103000222349F111962C911197251324C02C914C
:10104000261321C015962C91159721111CC01296BC
:101050002D913C9113972C1B3D0B283C310598F4A6
:101060008091DE018F7080618093DE01EA55FE4F32
:1010700080818F708061808388ED91E00E94D70528
:101080000E94BD0703C001968770C4CFDF91CF9146
:10109000089520919E0190919F0157E02917A9F092
:1010A00030E0529FF001539FF00D1124E056FE4FA7
:1010B0007181761306C07081781303C07581741333
:1010C00006C02F5F3F4F2770E9CF80E0089581E091
:1010D0000895A4E1B0E0EFE6F8E00C94C41E8C01A2
:1010E00086E0F801DE011F9601900D928A95E1F7E6
:1010F000F8018481E58098EDA92E91E0B92E9091B8
:10110000DC01911118C0882309F480C1EE20D9F1C7
:10111000C8010E943006F82E8823A9F187E0F80163
:10112000D50101900D928A95E1F7C5010E94040353
:101130000E94F00798C0F801C080D180828093801F
:10114000F090DD012091DA013091DB01A401421B16
:10115000530BFF2009F406C1483C510508F0AFC00D
:10116000882309F455C18091DE01282F207F9091BA
:10117000D901222361F09D1509F462C0C8010E94C3
:101180003006811173C0C8010E94D7053FC19D116F
:1011900015C09091D8019C1111C0E1100FC08F7043
:1011A00080618093DE010E94DF0788ED91E00E945C
:1011B000D7058091DE01F801868326C1E1103AC08F
:1011C00040E06D2D8C2D0E94490840E06D2D8C2D46
:1011D0000E944908E82E811117C1CF86D88A8F85D1
:1011E00098890E948F07292F22952F70243020F490
:1011F0009F70223028F009C02A50223080F014C09D
:10120000992349F0811107C013C0992321F0F801F7
:101210009681907F69F0805E883030F409C0803F0D
:1012200038F0815F833020F0C8010E94D705EF2C91
:10123000FE2CEEC08091DE0181608093DE01E4C06F
:101240009091D8019C119ACFE11098CFF801868334
:10125000C8010E94D70587E0F801A8EDB1E0019030
:101260000D928A95E1F70E94DF07D2C0EE2009F4C3
:101270008ACF2091DE01822F82958F7090E00297B5
:101280008CF08091D8019091D901998788879B86AD
:101290008A868091DC018C871D862E87CE01089678
:1012A0000E94D70587E0F801A8EDB1E001900D920A
:1012B0008A95E1F70E94F0070E94DF07A7C090918E
:1012C000DE01292F207FA1F4682D9A8A898AA60140
:1012D0007A899E2D0E943D0688ED91E00E94D705F7
:1012E00087E0F50111928A95E9F70E94DF078CC02B
:1012F000882309F48DC08091D9018D1111C080918E
:10130000D8018C110DC0E1100BC0F8019683C80103
:101310000E94D70587E0F50111928A95E9F778C018
:10132000C8010E943006882309F42DCFEE2009F46D
:101330002ACF2091DE01822F82958F7090E0029754
:101340000CF4B0CF8091D8019091D9019A83898310
:101350009C828B828091DC018D831E822F83CE0143
:1013600001969ECF483C510508F040C0882309F4FF
:101370004DC0FE2CEE2009F406CF8091D9018D11CD
:1013800027C08091D8018C1123C09091DE0190FD7F
:1013900016C0892F82958F70282F30E021153105D6
:1013A00071F0F80196832F30310509F451CF8F5F2A
:1013B000982F9295907F86818F70892B48CF87E0F8
:1013C000F801A8EDB1E001900D928A95E1F720C0F7
:1013D000C8010E943006811165CF8091DE018160D5
:1013E0008093DE01C8010E94D70512C0682D9A8A39
:1013F000898AA6017A899E2D0E943D0687E0F50123
:1014000011928A95E9F72FCFF12C02C0FF24F394B3
:101410008F2D6496ECE00C94E01EAEE0B0E0E3E1CA
:10142000FAE00C94CD1E288739874A875B876C8742
:101430007D878E87CE0108960E946908882361F017
:101440006C856623A9F1288539854A855B857D856C
:101450008E850E9447062CC087E0FE013896DE018B
:10146000119601900D928A95E1F76C85662301F142
:1014700020919F0130E0C901019687709927409122
:101480009E0150E084179507E1F16D8397E0929FEC
:10149000D001939FB00D1124A056BE4FFE0131968E
:1014A00001900D929A95E1F780939F010E94BD07EC
:1014B00017E080919E0190919F01891779F1189F03
:1014C000C001112480569E4F0E946908882331F183
:1014D000E0919E011E9FF0011124E056FE4F2081F5
:1014E0003181428153816481758186810E944706E2
:1014F00080919E0190E001968770992780939E01CC
:10150000D8CF0E94100610929F0110929E01E8ED24
:10151000F1E087E0DF011D928A95E9F72E96E3E07E
:101520000C94E91E8091070286958695869508950C
:10153000809107028770089590910702977081E06B
:1015400009F480E008958091330208959091330268
:10155000892B8093330208958095909133028923DB
:1015600080933302089510923302089590913202CD
:10157000892B8093320208958095909132028923BD
:1015800080933202089510923202089508950E94C5
:10159000C60A08950E94C70A089590910902292F4A
:1015A0002823821729F0982B909309020E94CA0AD7
:1015B000089590910902292F282331F080958923DD
:1015C000809309020E94CA0A089580910902882323
:1015D00029F01092090280E00E94CA0A0895CF9370
:1015E000C091330280913202C82B80910902882376
:1015F00031F0C82B0E94C41581110E94E50A8C2F7E
:10160000CF910895CF93DF93C0910201D091030150
:101610000E94EF0A8883C0910201D091030148E043
:1016200050E06FEF71E0CE010E94091F892B59F045
:1016300088E0FE01AFEFB1E001900D928A95E1F7ED
:10164000CE010E945315DF91CF910895CF93DF9380
:10165000C0910001D09101010E94EF0A8983C091DD
:101660000001D091010140E250E06FED71E0CE0148
:101670000E94091F892B59F080E2FE01AFEDB1E015
:1016800001900D928A95E1F7CE010E945E15DF91DF
:10169000CF91089580911601882339F080916702D7
:1016A00087FF03C00E94260B08950E94020B089535
:1016B0000E94C60A08950E94580B0895909108024E
:1016C000292F282331F080958923809308020E94D6
:1016D0005B0B08950E94C60A08959091680292FFDC
:1016E00011C098E0899F90011124262B20930702B6
:1016F0000E949906809107028695869586950E949C
:101700006A0B08950E94990608951092070280E0DE
:101710000E946A0B08959091070280958923809317
:101720000702282F277069F4981759F090916802E2
:1017300092FF07C08695869586950E94A9060E940D
:10174000850B08959091680292FB222720F92817B3
:1017500069F080FB92F99093680280916702909102
:1017600068020E94EA0B82E00E948B0B0895809130
:10177000680282FB882780F991E089270E94A20BEA
:10178000089581E00E94A20B089580E00E94A20BC0
:1017900008956FEF7FEF80E090E00E945B1F089557
:1017A00080E090E00E94271F21E0863E9E4F09F0D6
:1017B00020E0822F089582E090E00E941F1F08958C
:1017C00083E090E00E941F1F089584E090E00E9453
:1017D000271F0895BC0184E090E00E945B1F0895DC
:1017E000AB01BC018FE090E00E944F1F0895AB0158
:1017F000BC0183E190E00E944F1F089560E070E01B
:10180000CB010E94F70B089560E070E0CB010E94CD
:10181000F00B0E94FE0B0895A8E0B0E0E2E1FCE0CE
:101820000C94CE1E66EE7EEF80E090E00E945B1F7F
:1018300060E082E090E00E943D1F81E090E09093A4
:101840009D0180939C0161E083E090E00E943D1F38
:1018500060E074E184E090E00E945B1F60E086E05D
:1018600090E00E943D1F6FEF87E090E00E943D1FD7
:1018700040E050E0BA0188E090E00E944F1F60E035
:1018800084E290E00E943D1F60E087E190E00E94CA
:101890003D1F60E08CE090E00E943D1F60E08DE025
:1018A00090E00E943D1F19821A821B821C821D82B9
:1018B0001E821F82188648E050E068E170E0CE0189
:1018C00001960E942D1F40E050E0BA0180E290E0B6
:1018D0000E944F1F0E94040C2896E2E00C94EA1E1E
:1018E0000E940C0C0895682F8EE090E00E943D1F2E
:1018F0000895A6E0B0E0EFE7FCE00C94CC1E0E9457
:1019000090178C01809134029091350208171907C5
:1019100081F019821A820E949017682F49815A819A
:10192000792F80E090E00E94D1021093350200935D
:1019300034022696E4E00C94E81E0E949C17609303
:101940003C0270933D0280933E0290933F0260936D
:1019500038027093390280933A0290933B020895C3
:1019600081E0089581E008950E94B20C08950895E1
:101970000E94B70C08950E94B70C08950E94BB0CFA
:1019800008950E94B70C08950E94C10C08950E940A
:10199000B70C089584E69FE00E94DF100E94C70CF8
:1019A0000E94C40C08950E94B80C0E94B70C0895C0
:1019B0000E94830F0E94A50208950E9487170E942B
:1019C00043100E94D80C0E94BE0C0895A6E0B0E01F
:1019D000ECEEFCE00C94C51E0E94B00C811103C01B
:1019E0000E94790C50C00E9453101091360280E082
:1019F0000E94A10F811307C01091370281E00E945D
:101A0000A10F181769F38091400281FD0E94A70F72
:101A10000E94B40CA82E86E3E82E82E0F82E10E097
:101A200099249394812F0E94A10FB82EF701C080B2
:101A3000C82609F100E0DD24D3948C2D8D21A9F076
:101A4000AA2099F009831A830E9490179C838B83A4
:101A50009D8291E08B2D8D2109F490E049815A817E
:101A60006B817C818D810E94D1020F5FDD0C033080
:101A700021F7F701B0821F5FFFEFEF1AFF0A123064
:101A800089F60E949D0C0E94A7130E94B802269618
:101A9000EBE00C94E11E1F93CF93DF930E94790E2D
:101AA000EC01C11580E5D807E8F5C11590E4D90728
:101AB00008F0A8C0C03ED10530F5CD3CD10508F0F6
:101AC00094C0C83AD10578F4C53AD10508F083C06E
:101AD000C130D10509F47CC008F4F2C0C430D1058E
:101AE00008F0F1C0EDC0C33CD10508F0E9C0C85A08
:101AF000D0E0CC0FDD1FC05BDE4F0990D881C02D38
:101B0000CE019464E1C0C11580E2D80708F0CBC0D3
:101B1000C11591E0D90708F06BC0C83ED10508F4A3
:101B2000D2C0CEC0C03682E5D80728F5C03492E5D1
:101B3000D90708F079C0C03282E5D80708F06CC038
:101B4000C11592E5D90708F481C04C2F46954695FA
:101B500080E2489FA0011124C37021E030E0C90158
:101B600002C0880F991FCA95E2F7EA01C82BD92B4A
:101B7000CE019D68A9C0C03A82E5D807B8F48C2F81
:101B80008F71C03892E5D90708F07BC0869586959D
:101B900090E2899F90011124C37081E090E002C01F
:101BA000880F991FCA95E2F79A6868C0C03C82E521
:101BB000D80708F46DC0C03E92E5D90708F080C090
:101BC000CF71DD27DC2FCC27CE01806F906A7CC0DF
:101BD00081E090E079C0C55AD0E0CA57DE4F8881D5
:101BE000C82FD0E0CE0190646FC0CE0190656CC06C
:101BF0008D2F0E94150F182FCE0199270E94790E64
:101C00001F715CC0CE0199270E94790ECC27DF702E
:101C1000D06A8C2B9D2B58C0CF71D0E0DC2FCC2705
:101C2000CE01816F906A50C08C2F8F7186958695FA
:101C300090E2899F90011124C37081E090E002C07E
:101C4000880F991FCA95E2F79C6818C08C2F8F7176
:101C50000E94150F95E0D695C7959A95E1F7CF703C
:101C6000D0E0DC2FCC27282F30E084FF05C084E0B3
:101C7000220F331F8A95E1F7D069CE01822B932B77
:101C800023C090E0D82FCC27CE01846F906A1CC06F
:101C90008C2F8F710E94150F8F7190E0D82FCC2759
:101CA000CE01906211C08D2F8F710E94150F182FD9
:101CB000CE0199270E94790E1F719062912B04C06A
:101CC00080E090E001C0CE01DF91CF911F91089597
:101CD000723038F4633028F4462F672F0E94A90130
:101CE000089580E090E008950E94680E0E944B0DD8
:101CF00008958238910569F1B0F48133910509F4B2
:101D000075C048F48932910509F467C08A3291059B
:101D100009F471C008958533910509F459C08933D8
:101D20009105B9F00895833E910589F138F4803E1C
:101D30009105D1F0823E910529F10895863E9105E5
:101D4000C9F1873E9105D9F1843E910509F06CC037
:101D500027C02091670220FD57C021FD55C020916A
:101D6000680223FD5BC008958091670280FD48C032
:101D70008091680280FF48C08091670284FD46C060
:101D800083EE51C08091670282FF3CC0F5CF809105
:101D9000670282FD37C08091680280FD35C0ECCFBC
:101DA0008091680281FF36C08091670284FD2EC059
:101DB00087EE39C08091670283FF2AC0F5CF8091FA
:101DC000670283FD25C08091680281FD23C0ECCFAE
:101DD0008091670285FD22C01FC08091670285FD4A
:101DE0001BC08091680283FF19C00AC080916702FE
:101DF00086FD16C017C08091670286FD13C010C013
:101E000089E311C082EE0FC080EE0DC080E00BC0F0
:101E100086EE09C084EE07C085E305C089E203C0F1
:101E20008AE201C081E390E008959091670292FFF9
:101E300010C041E0282F2471243009F040E031E047
:101E4000282F2871283009F030E0431711F02CE0DA
:101E5000822793FF10C041E0282F2471243109F01C
:101E600040E031E0282F2871283109F030E0431795
:101E700011F02CE082273091680230FF10C051E051
:101E8000282F2171213009F050E041E0282F2871DE
:101E9000283009F040E0541711F029E0822731FF83
:101EA00010C041E0282F2171213109F040E031E0DC
:101EB000282F2871283109F030E0431711F029E06C
:101EC000822794FD877E089580E008950E94C90BC3
:101ED00008950E9453102FEF86E791E02150804033
:101EE0009040E1F700C000000E94531080E00E9483
:101EF000A10F80FF04C00E94660F0E94DD170895A5
:101F00000E94690F08950E94D00B811102C00E94A7
:101F1000700C0E94DB0B809340020E94E50B9093B3
:101F20006802809367020E94800F0E94E00B90E09D
:101F30000E94600680919A0190919B010E947E060A
:101F40000895E82FF0E0E559FD4F80810895089548
:101F500080EA8A95F1F7089500C008950E94A80FBD
:101F6000089508950E94B10F08950E94B20F089538
:101F70000E94B10F08950E94B80F0895F894E82FB9
:101F8000E295EF70F0E031A1282F2F7081E090E012
:101F900001C0880F2A95EAF7982F9095932391A373
:101FA00092A1892B82A37894089584E30E94BE0FA6
:101FB00086E30E94BE0F86EF0E94BE0F84EF0E9450
:101FC000BE0F80EF0E94BE0F0895A0E0B0E0EBEEE0
:101FD000FFE00C94C81E8C01C62FD0E0CE018457C0
:101FE0009E4F7C01FC0190819F3F09F447C0D62E93
:101FF000F894E92FE295EF70F0E081A19F7021E065
:1020000030E001C0220F9A95EAF7822B81A382A1CA
:102010002095282322A378940E94AC0FE9E8F1E0F0
:102020004CE851E031E0C12C21912F3F89F0A22FE3
:10203000A295AF70B0E090968C9190E02F7002C0A6
:10204000959587952A95E2F780FD02C0832F01C000
:1020500080E0C82A330F4E175F0731F7F701808100
:102060008F3F11F00E94BE0F61E0C11001C060E01F
:102070008D2D0E94AE0FC00FD11FC882CDB7DEB725
:10208000E8E00C94E41E0E94D50F10926C021092AE
:102090006B0210926A021092690282E00E9489101B
:1020A0000E94BB0F0895A2E0B0E0E9E5F0E10C94D6
:1020B000CD1E1A82198260E0CE0101960E94E50FC2
:1020C00061E0CE0101960E94E50F42E050E0BE01C2
:1020D0006F5F7F4F89E692E00E94091F21E0009721
:1020E00009F420E0892B31F089819A8190936A026A
:1020F0008093690242E06BE672E089E692E00E941A
:102100008A10182F0E94B50F812F2296E3E00C94BD
:10211000E91E0895EF92FF920F931F93CF93DF93E1
:102120007C018B01C42F222351F081E08093430274
:102130000E949017909342028093410204C08091C4
:102140004302811102C080E01AC080914102909147
:1021500042020E94A8170597B0F3D0E0AE01B70184
:10216000C8010E94091F892B39F0AE01B701C801CF
:102170000E94161F81E001C080E010924302CDB79B
:10218000DEB7E6E00C94E61E0E9472190E94DD0C98
:102190000E947F1908950E9484190E94E60C0E94F3
:1021A0009E1908950E9427170E9458190E94CA0C70
:1021B0000E94C4100E94CB100E94D30CFBCF9093BE
:1021C0008F0180938E010895CF93DF9386319C47D2
:1021D00009F5EB010E94A30A9D81992371F08A7A87
:1021E00091E009F490E090934402811102C089E2E9
:1021F00001C085E30E946B1609C0809144028111E1
:1022000002C089E201C085E30E9482160E944A0B47
:1022100080E001C081E0DF91CF910895CF93DF93FB
:10222000FC01DB0115968C91882309F4DDC09F0128
:1022300030572332310508F0D8C0EF010E94E50B7A
:102240009093680280936702FE01E150F047E2320A
:10225000F10520F4EE59FF4F0C94B81E80916702EF
:102260008160AAC0809168028860B2C080916702D4
:102270008260A2C08091670220C08091670288605E
:102280009BC0809168021EC0809168028260A0C0DD
:1022900080916702806190C08091670280628CC0EB
:1022A00080916702806488C00E9410068091670256
:1022B000806882C080916702886084607DC0809160
:1022C00068028260816084C0809167028E7F74C0E2
:1022D00080916802877F7CC0809167028D7F6CC08F
:1022E0008091670220C080916702877F65C08091DE
:1022F00068021EC0809168028D7F6AC0809167026B
:102300008F7E5AC0809167028F7D56C08091670290
:102310008F7B52C00E941006809167028F774CC05D
:1023200080916702877F8B7F47C0809168028D7F95
:102330008E7F4EC08091670282FB222720F991E0B8
:10234000922790FB82F990FB83F936C08091680256
:10235000982F909591708E7F892B90FB81F938C0D2
:102360008091670286FB222720F991E0922790FB5B
:1023700086F922C00E9410068091670287FB2227FF
:1023800020F991E0922790FB87F916C081E001C007
:1023900080E00E94730C1EC08091670284FB22279C
:1023A00020F991E0922790FB84F906C080916702A2
:1023B000982F909590FB80F9809367020BC08091D5
:1023C000680283FB222720F991E0922790FB83F992
:1023D0008093680280916702909168020E94EA0BE4
:1023E0000E94100680E001C081E0DF91CF91089546
:1023F000282F35EB2303C001112497FF03C0805819
:10240000910902C080589F4F892F089580914B02F7
:1024100080FF06C06091090170E0660F771F26C03B
:1024200081FF04C06091090184E005C082FF07C0FC
:102430006091090188E0689FB001112417C0909154
:102440004A029923D1F060910801961788F72091EC
:10245000090188E0289F90011124929FA001939F79
:10246000500D112470E0CA010E94A41E603871054D
:1024700040F46115710519F406C068E070E0862F1C
:1024800008958FE7089581E0089580914B0280FFC1
:1024900008C06091050170E0759567957595679521
:1024A00021C081FF06C06091050170E075956795B8
:1024B00019C082FF04C06091050170E010C09091C6
:1024C0004902992399F0609104019617A0F7809131
:1024D0000501899FC001112470E00E94A41E60388C
:1024E000710540F46115710519F406C061E070E0F2
:1024F000862F08958FE7089581E0089590914E0208
:1025000091110CC090914F02911108C0909151020D
:10251000911104C090915002992331F098E090936A
:102520004A0291E0909349028D3C21F40E940612E8
:10253000819504C08E3C29F40E94061280934F02BC
:1025400008958F3C21F40E940612819504C0803DBD
:1025500029F40E94061280934E020895893D19F4D1
:102560000E94451205C08A3D31F40E9445128195B2
:102570008093500208958B3D21F40E94451281956D
:1025800004C08C3D29F40E944512809351020895A5
:102590009FE2980F983078F421E030E0A90102C062
:1025A000440F551F9A95E2F7CA0190914D02892B6D
:1025B00080934D0208958D3D21F480914B028160FE
:1025C0000BC08E3D21F480914B02826005C08F3D8F
:1025D00029F480914B02846080934B0208958D3CD6
:1025E00039F490914F0297FF35C010924F0259C0B5
:1025F0008E3C29F490914F021916BCF32BC0909198
:102600004E028F3C29F497FF25C010924E0249C01C
:10261000803D19F41916CCF31DC090915002893DEC
:1026200029F41916BCF4109250023BC08A3D19F4EB
:1026300097FF10C0F8CF8B3D39F49091510297FF6E
:1026400009C0109251022DC08C3D21F4909151028D
:102650001916BCF39FE2980F983080F421E030E027
:10266000A90102C0440F551F9A95E2F7CA0180954F
:1026700090914D02892380934D0213C08D3D21F42A
:1026800080914B028E7F0BC08E3D21F480914B02D6
:102690008D7F05C08F3D29F480914B028B7F809305
:1026A0004B0280914E02811106C080914F02811130
:1026B00002C010924A0280915002811106C080919E
:1026C0005102811102C01092490208950E94901790
:1026D00020914E02211104C020914F02222321F0AB
:1026E000909348028093470220915002211104C028
:1026F00020915102222321F09093460280934502BB
:102700008CE492E00E946C150895ECE4F2E086E01F
:10271000DF011D928A95E9F710924A021092490250
:1027200010924B020895FC01828181110DC08381BA
:1027300081110AC08481811107C091E085818111D6
:1027400001C090E0892F01C081E081700895A6E06A
:10275000B0E0EDEAF3E10C94CD1E86E0ECE4F2E0AB
:10276000DE01119601900D928A95E1F710924E02CA
:1027700010924F0210925002109251028B818111DF
:1027800004C08C81882309F456C08091470290913F
:1027900048020E94A817AC0190914A02992339F08F
:1027A00020910A0130E02417350758F044C02091E9
:1027B0000B018AE0289F900111242417350718F097
:1027C0003AC09F3F19F09F5F90934A021B811123EB
:1027D00061F00E940612111614F09FEF01C091E003
:1027E000989F902D112490934E021C81112361F02B
:1027F0000E940612111614F09FEF01C091E0989FFD
:10280000902D112490934F0280914E02882399F0CD
:1028100010914F02112379F00E94F811811101C02B
:1028200081E080934E02812F0E94F811811101C036
:1028300081E080934F028D81811104C08E818823B5
:1028400009F456C080914502909146020E94A81753
:10285000AC0190914902992339F02091060130E0B2
:102860002417350758F044C0209107018AE0289FBB
:10287000900111242417350718F03AC09F3F19F032
:102880009F5F909349021D81112361F00E944512C0
:10289000111614F09FEF01C091E0989F902D112424
:1028A000909350021E81112361F00E94451211166F
:1028B00014F09FEF01C091E0989F902D1124909308
:1028C000510280915002882399F0109151021123F6
:1028D00079F00E94F811811101C081E080935002CB
:1028E000812F0E94F811811101C081E08093510273
:1028F000BE016F5F7F4F8CE492E00E94B31681119E
:1029000005C08CE492E00E94931381110E9466132B
:1029100086E0FE013196ACE4B2E001900D928A951A
:10292000E1F72696E3E00C94E91E0F931F93CF93F3
:10293000DF93C42FD22FFC0185818823B1F040930F
:1029400054020E949017909353028093520280E2A7
:102950008C0F883008F04DC0C77081E001C0880F2F
:10296000CA95EAF70E94B60344C080915402481306
:1029700030C080915202909153020E94A817883C67
:10298000910538F510E21D0FCD17B9F080E28C0FDC
:10299000883040F4C77081E001C0880FCA95EAF71B
:1029A0000E94BD03183010F581E09D2F977001C083
:1029B000880F9A95EAF70E94B603802F0E94AC0315
:1029C0001830B8F4D77081E001C0880FDA95EAF7C3
:1029D0000AC080E28C0F883060F4C77081E001C0CB
:1029E000880FCA95EAF70E94BD0303C0802F0E949A
:1029F000AC03DF91CF911F910F9108950F93FC01CC
:102A0000E851FC47E730F10590F5CB01EC57FF4F5B
:102A10000C94B81E06E221EE41EE6AE17CE723C089
:102A200007E225EE45EE6BE17CE71DC006E221EEF4
:102A300040EE68E17CE717C007E225EE44EE69E16D
:102A40007CE711C006E221EE42EE6CE17CE70BC0B0
:102A500007E225EE46EE6DE17CE705C008E221E0E5
:102A600045EE6EE17CE70E94951480E008C0FB0112
:102A70008581882319F01092540201C081E00F91E2
:102A8000089590935A02809359020895E091590253
:102A9000F0915A02309729F00190F081E02D0995CC
:102AA000089580E00895E0915902F0915A0230971C
:102AB00021F00280F381E02D09950895E0915902FB
:102AC000F0915A02309739F026E0DC012C93048013
:102AD000F581E02D09950895E0915902F0915A028F
:102AE000309739F022E0DC012C930680F781E02D4D
:102AF00009950895A3E0B0E0E0E8F5E10C94CE1E5E
:102B0000209157023091580228173907A1F090936D
:102B1000580280935702E0915902F0915A0230977F
:102B200051F023E029839B838A830084F185E02D83
:102B3000CE01019609952396E2E00C94EA1EA3E0EB
:102B4000B0E0E5EAF5E10C94CE1E209155023091FB
:102B5000560228173907A1F0909356028093550228
:102B6000E0915902F0915A02309751F024E0298304
:102B70009B838A830084F185E02DCE01019609951F
:102B80002396E2E00C94EA1EE0910201F091030129
:102B9000329680911601882359F08091670287FF51
:102BA00007C0E0910001F091010132969EE101C061
:102BB00096E080E0915028F021912223D9F38F5F95
:102BC000F9CF0895882399F190911601992309F17D
:102BD0009091670297FF1DC0982F969596959695B0
:102BE0009E3128F5E0910001F0910101E90FF11DFE
:102BF0002281422F50E0877021E030E002C0220F96
:102C0000331F8A95E2F72423352381E0232B91F4A7
:102C10000EC02091020130910301F9013296285F24
:102C20003F4F9191891729F0E217F307D1F780E020
:102C3000089581E008959C01FC0132969FEF80E0A9
:102C40004191461789F09F3F19F4411101C0982F17
:102C50008F5F8630A9F79F3F39F0F901E90FF11D29
:102C600097FDFA956283089508959C012A5F3F4F6E
:102C7000FC014281461301C012820196821793071C
:102C8000B9F70895262F2695269526952E3168F4B6
:102C9000FC01E20FF11D677021E030E001C0220F5E
:102CA0006A95EAF78281282B22830895262F26959C
:102CB000269526952E3170F4FC01E20FF11D677008
:102CC00021E030E001C0220F6A95EAF72095828169
:102CD000282322830895682F80911601882359F0B4
:102CE0008091670287FF07C08091000190910101E8
:102CF0000E944216089580910201909103010E9462
:102D00001B160895682F80911601882359F0809131
:102D1000670287FF07C080910001909101010E9426
:102D20005616089580910201909103010E94351674
:102D3000089580911601882359F08091670287FFDA
:102D400007C0E0910001F091010132968EE106C0CA
:102D5000E0910201F0910301329686E0DF011D92BD
:102D60008A95E9F70895DC01FB0111969C91119772
:102D70008181981321C012968C911297882319F0A3
:102D80009281891319C013968C911397882319F097
:102D90009381891311C015968C911597882319F08A
:102DA0009581891309C014969C91992339F081E08B
:102DB0002481291304C002C081E001C080E0817039
:102DC000089508950E94E116089583E080935B02C0
:102DD0000E94E2160895811102C081E001C082E0E4
:102DE00080935B020E94E21608950E94EB160895FC
:102DF00081E080935B020E94E21608950E94F8161B
:102E0000089508950E94011708950E9402170895D9
:102E10000E94011708950E94011708950E9401174A
:102E200008950E940B170E9453100E94081780E01B
:102E30000E94A10F811108C081E00E94A10F91E0C2
:102E4000811103C090E001C091E0892F089585B7FA
:102E5000806885BF85B7806885BF08951F920F92EF
:102E60000FB60F9211248F939F93AF93BF938091CE
:102E70005C02811113C080916D0290916E02A0914D
:102E80006F02B09170024196A11DB11D80936D0239
:102E900090936E02A0936F02B0937002BF91AF91B6
:102EA0009F918F910F900FBE0F901F90189580915A
:102EB0007502843031F10E94880210925C0220E495
:102EC00088E190E00FB6F894A895809360000FBE5B
:102ED0002093600083B7817F846083BF83B7816064
:102EE00083BF7894889583B78E7F83BF0FB6F8949D
:102EF000A8958091600088618093600010926000C6
:102F00000FBE08950E9410060E948D02089582E06F
:102F100084BD93E095BD9AEF97BD80936E000895B0
:102F20002FB7F89480916D0290916E02A0916F027C
:102F3000B09170022FBF08952FB7F89460916D0281
:102F400070916E0280916F02909170022FBF089570
:102F50009C014FB7F89480916D0290916E02A09100
:102F60006F02B09170024FBF821B930B089578944B
:102F70001F920F920FB60F9211248F939F93AF93CE
:102F8000BF9380916D0290916E02A0916F02B091FB
:102F900070020196A11DB11D80936D0290936E0287
:102FA000A0936F02B0937002BF91AF919F918F91E8
:102FB0000F900FBE0F901F90189581E08093E00056
:102FC00080E28093D8001092C9008FE19EE40197BF
:102FD000F1F700C0000087E090EBDC0180937E02F7
:102FE00090937F02A0938002B09381029CE088E1DD
:102FF0000FB6F894A895809360000FBE9093600080
:10300000FFCF9CE088E10FB6F894A895809360000C
:103010000FBE90936000FFCF8091650208959B01E1
:10302000909175029430F1F48F708093E9008FEFE6
:103030009091E800815095FD06C095ED9A95F1F7C5
:1030400000008111F5CF8091E80085FF0BC0BA0127
:10305000C90140E050E00E94161A8091E8008E7786
:103060008093E800089543E050E0BC0182E00E94B4
:103070000F18089546E050E0BC0182E00E940F184E
:10308000089540E250E0BC0182E00E940F180895CC
:10309000CF93DF93EC0148E050E0BC0181E00E9457
:1030A0000F1888E0FE01ADE5B2E001900D928A951F
:1030B000E1F7DF91CF91089580917402811109C0E9
:1030C0000E94A11B0E94FE1B8091E20084608093FD
:1030D000E20008951092740208950E94FE16089569
:1030E0006091710281E0611101C080E00E94E516EB
:1030F00008959091750281E0943009F080E060912C
:1031000071020E94EB16089542E061EC81E00E949A
:103110001A1B42E261EC82E00E941A1B9091750238
:1031200081E0943009F080E0609171020E94F51610
:10313000089580917702833009F461C030F48130C2
:1031400071F0823009F49BC008958A3009F487C079
:103150008B3009F46CC0893009F0A9C020C080917F
:103160007602813A09F0A3C08091E800877F8093BE
:10317000E80080917A0290917B02892B21F468E02B
:103180008DE592E003C060E080E090E070E00E9496
:103190005B1A8091E8008B778093E8000895809116
:1031A0007602813209F083C080917A0290917B028D
:1031B000029708F07CC08091E800877F8093E80048
:1031C0008091E80082FD05C0809175028111F8CFE1
:1031D0006EC02091F3008091F20090E0922B029754
:1031E00031F48091F100813011F0863021F480912A
:1031F000F100809365028091E8008B7754C0809144
:103200007602813A09F053C080917A0290917B0254
:10321000892B09F04CC08091E800877F8093E800FB
:103220008091E80080FFFCCF8091160137C080912B
:1032300076028132E1F580917A0290917B02892BAE
:10324000B1F58091E800877F8093E8000E944F1BD2
:1032500080917802809316010E9410060895809153
:103260007602813221F58091E800877F8093E80023
:103270000E944F1B8091790280936602089580918D
:103280007602813AA1F48091E800877F8093E8007C
:103290008091E80080FFFCCF809166028093F1006E
:1032A0008091E8008E778093E8000E944F1B08957C
:1032B00084B7877F84BF0FB6F894A895809160008B
:1032C000886180936000109260000FBE90E080E8FB
:1032D0000FB6F89480936100909361000FBE0E9436
:1032E000F81608950E94A11B0E94FE1BE2EEF0E07A
:1032F00080818460808378940E94891E08958CE088
:1033000091E00E9441150895809175028530A9F4DD
:1033100080917502853079F40E945717809173026D
:103320008823B1F30E941117882391F30E94001A99
:103330000E941006EDCF0E948217089508959A0109
:1033400040917C0250917D020E94A7190895492F57
:10335000552743305105C9F060F44130510581F0E3
:103360004230510509F044C08BE390E046E651E05D
:1033700043C041325105E1F04232510549F138C0B4
:1033800082E190E041EA51E037C099278130910510
:1033900049F028F0029761F5E6E3F1E005C0E2E6C6
:1033A000F1E002C0ECE4F1E0849190E0AF0124C0D0
:1033B0006115710541F061307105D1F489E090E04B
:1033C00041E951E019C089E090E048E751E014C0BC
:1033D0006115710541F06130710551F486EB90E0A3
:1033E00043EB51E009C084E490E049E652E004C0B8
:1033F00080E090E040E050E0F9015183408308957F
:1034000080E189BD82E189BD09B400FEFDCF8091D4
:10341000D8008F7D8093D8008091E00082608093F7
:10342000E0008091E00081FDFCCF0895A0E0B0E0D5
:10343000ECE1FAE10C94C81EEC018B017A010E94C8
:103440006E1B811133C0E114F10439F0F701808162
:103450009181081B190BC80FD91FC12CD12C011544
:10346000110519F18091E80085FD16C08091E800F2
:103470008E778093E800E114F10449F0F701808130
:103480009181C80ED91ED182C08285E00FC00E94F2
:103490006E1B882321F30AC089918093F1000150AB
:1034A0001109FFEFCF1ADF0ADACF80E0CDB7DEB720
:1034B000E8E00C94E41E20917C0230917D022617F6
:1034C000370748F06115710539F42091E8002E772F
:1034D0002093E80001C0B901FC0120E061157105ED
:1034E00079F1809175028823F1F18530F1F18091B5
:1034F000E80083FD3CC08091E80082FD2EC08091F1
:10350000E80080FFEBCF2091F3008091F20090E083
:10351000922B6115710551F08830910538F4219195
:103520002093F100615071090196F3CF21E00897D3
:1035300009F020E08091E8008E778093E800CECFFC
:103540002111CFCF0AC080917502882361F08530A8
:1035500061F08091E80083FD0AC08091E80082FF5D
:10356000F2CF80E0089582E0089583E0089581E03D
:10357000089520917C0230917D022617370748F08C
:103580006115710539F42091E8002E772093E80049
:1035900001C0B901FC0120E06115710591F1809134
:1035A0007502882309F440C0853009F43FC080913A
:1035B000E80083FD3DC08091E80082FD2FC080912E
:1035C000E80080FFE9CF2091F3008091F20090E0C5
:1035D000922B6115710559F08830910540F42491C2
:1035E0002093F1003196615071090196F2CF21E0EC
:1035F000089709F020E08091E8008E778093E8003A
:10360000CBCF2111CCCF0AC080917502882361F005
:10361000853061F08091E80083FD0AC08091E80068
:1036200082FFF2CF80E0089582E0089583E008955C
:1036300081E00895982F973068F59093E9009817E6
:1036400039F07091EC002091ED005091F00003C032
:10365000242F762F50E021FD02C09F5FECCF3091E8
:10366000EB003E7F3093EB003091ED003D7F3093D7
:10367000ED003091EB0031603093EB007093EC0083
:103680002093ED005093F0002091EE0027FDE5CF50
:1036900080E008958F708093E90081E00895809123
:1036A000760287FF11C08091E80082FD05C08091FD
:1036B00075028111F8CF11C08091E8008B770BC0A3
:1036C00080917502882349F08091E80080FFF8CF4F
:1036D0008091E8008E778093E80008952091E400BF
:1036E0003091E50095E64091EC00842F817040FF19
:1036F00023C08091E80080FD1DC080917502882361
:1037000099F0853099F08091EB0085FD11C04091D2
:10371000E4005091E5002417350729F3915011F08A
:103720009A01E1CF84E0089582E0089583E008954E
:1037300081E0089580E008954091E80042FFDDCFE8
:1037400008950E94101C0E94181CE0EEF0E0808199
:1037500081608083E8EDF0E080818F77808319BC01
:10376000A7EDB0E08C918E7F8C9380818F7E8083DB
:103770001092740208950F931F93CF93DF930E94CA
:10378000101C0E94181CC8EDD0E088818F778883B8
:1037900088818068888388818F7D888319BC109296
:1037A000750210927102109273021092720200EE72
:1037B00010E0F80180818B7F80838881816088831D
:1037C00042E060E080E00E941A1BE1EEF0E08081C0
:1037D0008E7F8083E2EEF0E0808181608083808153
:1037E00088608083F80180818E7F808388818061FA
:1037F0008883DF91CF911F910F910895E8EDF0E05C
:1038000080818F7E8083E7EDF0E08081816080831E
:1038100084E082BF81E0809374020E94BB1B089504
:10382000E8EDF0E080818E7F80831092E2000895C1
:103830001092DA001092E10008951F920F920FB6D5
:103840000F9211242F933F934F935F936F937F9326
:103850008F939F93AF93BF93EF93FF938091E1007A
:1038600082FF0BC08091E20082FF07C08091E100DF
:103870008B7F8093E1000E94881E8091DA0080FF98
:103880001FC08091D80080FF1BC08091DA008E7F1E
:103890008093DA008091D90080FF0DC080E189BD5E
:1038A00082E189BD09B400FEFDCF81E080937502FD
:1038B0000E945C1805C019BC109275020E946A181B
:1038C0008091E10080FF19C08091E20080FF15C067
:1038D0008091E2008E7F8093E2008091E20080611F
:1038E0008093E2008091D80080628093D80019BC58
:1038F00085E0809375020E9470188091E10084FF3A
:1039000030C08091E20084FF2CC080E189BD82E15B
:1039100089BD09B400FEFDCF8091D8008F7D8093D2
:10392000D8008091E1008F7E8093E1008091E200D9
:103930008F7E8093E2008091E20081608093E200BC
:1039400080917102882311F084E007C08091E30028
:1039500087FD02C081E001C083E0809375020E9470
:1039600079188091E10083FF29C08091E20083FFF4
:1039700025C08091E100877F8093E10082E0809301
:103980007502109271028091E1008E7F8093E100B8
:103990008091E2008E7F8093E2008091E20080615E
:1039A0008093E20042E060E080E00E941A1B809178
:1039B000F00088608093F0000E946D18FF91EF91F5
:1039C000BF91AF919F918F917F916F915F914F9137
:1039D0003F912F910F900FBE0F901F9018951F923F
:1039E0000F920FB60F9211242F933F934F935F9333
:1039F0006F937F938F939F93AF93BF93CF93DF93F7
:103A0000EF93FF93C091E900CF708091EC00D82F25
:103A1000D17080FDD0E81092E9008091F000877F9E
:103A20008093F00078940E94331D1092E9008091F9
:103A3000F00088608093F000CD2BCF70C093E90038
:103A4000FF91EF91DF91CF91BF91AF919F918F91B6
:103A50007F916F915F914F913F912F910F900FBE8A
:103A60000F901F901895AAE2B0E0E9E3FDE10C94F5
:103A7000CD1EE6E7F2E08091F100819322E0EE377F
:103A8000F207C9F70E9499188091E80083FF2EC1C0
:103A90008091760290917702492F50E04A3051058B
:103AA00008F024C1FA01E557FF4F0C94B81E803886
:103AB00021F0823809F01AC108C0809172029091F9
:103AC0007302992389F082600FC080917A028F700F
:103AD000873008F00BC18093E9008091EB0085FBF3
:103AE000882780F91092E9009091E800977F9093E1
:103AF000E8008093F1001092F100D1C0282F2D7FB3
:103B000009F0F4C0882319F0823061F0EFC0809191
:103B10007802813009F0EAC0933009F080E08093A8
:103B200073022EC08091780281112AC080917A029E
:103B30008F702FEF280F263008F0D8C08093E9004F
:103B40002091EB0020FF1CC0933021F48091EB000A
:103B5000806214C09091EB0090619093EB0021E0A3
:103B600030E0A90102C0440F551F8A95E2F7409347
:103B7000EA001092EA008091EB0088608093EB00ED
:103B80001092E9008091E800877F8093E8000E940E
:103B90004F1BACC08111AAC0109178021F77809191
:103BA000E3008078812B8093E3008091E800877F99
:103BB0008093E8000E944F1B8091E80080FFFCCFBB
:103BC0008091E30080688093E300111102C082E0DD
:103BD00001C083E08093750289C08058823008F06C
:103BE00085C080917802909179028C3D53E09507D1
:103BF00079F583E08A838AE289834FB7F894DE01FE
:103C0000139620E03EE051E2E32FF0E0509357009E
:103C1000E49120FF03C0E295EF703F5FEF708E2FBD
:103C200090E0EA3010F0C79601C0C0968D939D9346
:103C30002F5F243149F74FBF8091E800877F809341
:103C4000E8006AE270E0CE0101960E945B1A16C09D
:103C500060917A0270917B02AE014F5F5F4F0E94CC
:103C60009F19BC01892B09F441C09091E800977F0E
:103C70009093E80089819A810E94B91A8091E800A6
:103C80008B778093E80032C0803881F58091E8001E
:103C9000877F8093E800809171028093F10080918A
:103CA000E8008E7772CF811121C0809178029091C7
:103CB000790299270297D4F48091E800877F809356
:103CC000E80080917802809371020E944F1B8091DE
:103CD0007102811106C08091E30087FD02C081E07E
:103CE00001C084E0809375020E9484188091E800EE
:103CF00083FF0AC08091E800877F8093E80080916D
:103D0000EB0080628093EB00AA96E3E00C94E91E3E
:103D10000895CF93809175028823A1F0C091E900A6
:103D2000CF709091EC00892F817090FD80E8C82BB6
:103D30001092E9008091E80083FD0E94331DCF704E
:103D4000C093E900CF91089597FB072E16F40094D5
:103D500007D077FD09D00E94F51E07FC05D03EF480
:103D6000909581959F4F0895709561957F4F089527
:103D7000EE0FFF1F0590F491E02D09942F923F92D2
:103D80004F925F926F927F928F929F92AF92BF926B
:103D9000CF92DF92EF92FF920F931F93CF93DF9317
:103DA000CDB7DEB7CA1BDB0B0FB6F894DEBF0FBE74
:103DB000CDBF09942A88398848885F846E847D84C1
:103DC0008C849B84AA84B984C884DF80EE80FD80C3
:103DD0000C811B81AA81B981CE0FD11D0FB6F89439
:103DE000DEBF0FBECDBFED010895AA1BBB1B51E185
:103DF00007C0AA1FBB1FA617B70710F0A61BB70B5B
:103E0000881F991F5A95A9F780959095BC01CD01FF
:103E10000895FB01DC0104C08D910190801921F40B
:103E200041505040C8F7881B990B0895FB01DC01F5
:103E300002C001900D9241505040D8F70895F99971
:103E4000FECF92BD81BDF89A992780B50895A8E16B
:103E5000B0E042E050E00C94631FDC01A40FB51FFA
:103E60004150504048F0CB01840F951F2E910E9485
:103E70003E1F41505040D0F70895262FF999FECFAC
:103E800092BD81BDF89A019700B4021639F01FBAAD
:103E900020BD0FB6F894FA9AF99A0FBE08950396CA
:103EA000272F0E943E1F0E943D1F252F0E943E1F6C
:103EB000242F0C943E1F0196272F0E943E1F0C9426
:103EC0003D1FDC01CB01FC01F999FECF06C0F2BD1C
:103ED000E1BDF89A319600B40D9241505040B8F7C8
:063EE0000895F894FFCFE5
:103EE6000A022A02280850011E0A14010C18481852
:103EF60041183A18331801E200E900EA00B500B6A5
:103F060000B700CD008301CC008A01920194012103
:103F160002230224022502260227022A02B300B443
:103F2600006F0070009F01CB019F02A00281828377
:103F3600E200E900EA00B500B600B700CD00830153
:103F4600CC008A0192019401210223022402250257
:103F5600260227022A02B300B4006F0070009F01F8
:0E3F6600CB019F02A002818283F6F4F0343674
:00000001FF
